:020000040800F2
:100000003012002099010008F11200086B1000085E
:10001000C911000829020008451700080000000067
:1000200000000000000000000000000001010008C6
:100030002B020008000000004501000859130008C9
:10004000B3010008B3010008B3010008B3010008C0
:10005000B3010008B3010008B3010008B3010008B0
:10006000B3010008B3010008B3010008B3010008A0
:10007000B3010008B3010008B3010008B301000890
:10008000B3010008B3010008B3010008B301000880
:10009000B3010008B3010008B3010008B301000870
:1000A000B3010008B3010008B30100081D140008E3
:1000B000B3010008B301000865140008B30100088B
:1000C000B3010008B3010008B3010008B301000840
:1000D000B3010008B301000839170008B301000894
:1000E000B3010008B3010008B3010008DFF80CD029
:1000F00000F088F800480047F1170008301200208F
:10010000224B19680868B0E8F00F80F30988BFF344
:100110006F8F4FF0000080F311884EF00D0E704786
:100120000000000006480068006880F3088862B696
:1001300061B6BFF34F8FBFF36F8F00DF00BF00BF0B
:1001400008ED00E0EFF30980BFF36F8F0F4B1A68E3
:1001500020E9F00F106008B54FF0500080F31188CF
:10016000BFF34F8FBFF36F8F01F0B8FE4FF0000069
:1001700080F31188BDE8084019680868B0E8F00FFE
:1001800080F30988BFF36F8F704700BF1C00002009
:10019000EFF3058070470000064880470648004797
:1001A000FEE7FEE7FEE7FEE7FEE7FEE7FEE7FEE727
:1001B000FEE7FEE7D5130008ED00000840EA010362
:1001C0009B0703D009E008C9121F08C0042AFAD20D
:1001D00003E011F8013B00F8013B521EF9D27047D1
:1001E000D2B201E000F8012B491EFBD27047002279
:1001F000F6E710B513460A4604461946FFF7F0FF26
:10020000204610BD064C074D06E0E06840F00103B3
:1002100094E8070098471034AC42F6D3FFF76AFF22
:100220001C2200083C220008FEE7704770470000CF
:1002300010B590F821100024022903D00421816315
:1002400001243DE001680A6822F00E020A6001689C
:100250000A6822F001020A601A4A0168914201D13B
:10026000012121E0174A1432914201D110211BE0F3
:10027000144A2832914201D1891515E0114A3C32C5
:10028000914201D189140FE00E4A5032914202D1BD
:100290004FF4803108E00B4A6432914202D14FF4AE
:1002A000801101E04FF08071064A083A5160012147
:1002B00080F82110002180F82010416B01B188479F
:1002C000204610BD080002402DE9F84FDFF8B89134
:1002D000002409F1040A0AF1040B23460F270BF14D
:1002E000040EC9E00125A5402A40AA427DD1674EEF
:1002F000D1F804C0ACEB0608B44532D014DCBCF134
:10030000030F3AD009DCBCF1000F2AD0BCF1010F79
:100310001CD0BCF1020F31D11DE0BCF1110F17D080
:10032000BCF1120F2AD119E0B8F5881F19D006DCEC
:10033000B8F5803F15D0B8F5801F1FD111E0B8F592
:10034000001F0ED0B8F5041F18D10AE0CB6815E0E5
:10035000CB681B1D12E0CB6808330FE0CB680C3371
:100360000CE08B682BB1012B4FF0080303D04561E3
:1003700004E0042302E0056100E00023FF2A01D825
:10038000064601E000F104064FEA840501D9A5F113
:100390002005D6F8008007FA05FC28EA0C0803FAC5
:1003A00005F548EA0508C6F800804D68ED0062D5FD
:1003B000374DAE6946F00106AE61AD6924F0030623
:1003C00005F001050095334D06EB050CDCF80850EF
:1003D000A607360F07FA06F825EA0805DFF8B88001
:1003E000404503D14FF0000817E044E0DFF8AC804F
:1003F000404502D14FF001080FE0DFF8A4804045EE
:1004000002D14FF0020808E0DFF89880404502D1A1
:100410004FF0030801E04FF0040808FA06F848EA34
:100420000508CCF808804D68D9F80060ED034D460A
:1004300001D5164300E096432E604D68DAF800605F
:10044000AD03554601D5164300E096432E604D6836
:10045000DBF80060ED025D4601D5164300E09643EF
:100460002E604D68DEF80060AD02754601D516437A
:1004700000E096432E60641C0D682A46E5407FF438
:1004800031AFBDE8F88F00000004014000001110FA
:10049000001002400000014000080140000C014033
:1004A0000010014000140140C2680A4201D04161BD
:1004B0007047016170470AB1016170470904FBE7A9
:1004C00001488068704700000C00002002488168E5
:1004D00002781144816070470C000020074810B575
:1004E000016841F010010160032000F095F8002040
:1004F00000F006F800F03EF8002010BD0020024099
:1005000000B5014687B000221E2000F065F81E20CD
:1005100000F054F81348C16941F00401C161C06999
:1005200005A900F004000690684600F01DF900F0EF
:100530003BF90D494000B0FBF1F10D480B4A491E53
:100540000260416040F2E7320021C0E9032181608E
:1005500000F012FB10B1012007B000BD044800F00C
:1005600027FBF9E70010024040420F00000800405E
:10057000000100200F4808B5816941F00101816147
:10058000816901F001010091C16941F08051C161AF
:10059000C069002200F0805000900F21901E00F0F2
:1005A0001BF80548416821F0E06141F000714160AD
:1005B00008BD00000010024000000140002809DBD7
:1005C00000F01F02012191404009800000F1E0206D
:1005D000C0F8001170470000F0B40E4B1B680C46C9
:1005E000C3F30223C3F10705042D00D90425191D07
:1005F000072901D2002300E0DB1E012606FA05F1DF
:10060000491E214099409E40761E16403143F0BC61
:1006100001F0A2B80CED00E0064900F007020868FE
:100620004FF6FF03184040EA0220034A10430860D7
:10063000704700000CED00E00000FA052DE9F047DE
:100640000F46050061D0434E306800F00700B84205
:1006500009D2306820F0070038433060306800F07D
:100660000700B84251D128683B4C810712D540079A
:1006700003D5606840F4E06060602878000703D527
:10068000606840F4605060606068A96820F0F00025
:10069000084360602878C00728D06868012810D017
:1006A0002168022810D0890700292EDA616821F01C
:1006B000030101436160FFF703FF804641F288397F
:1006C0000DE021688903EFE78901EDE7FFF7F8FE08
:1006D000A0EB0801494502D90320BDE8F087606816
:1006E000696800F00C00B0EB810FEFD1306800F0CA
:1006F0000700B8420BD9306820F00700384330605B
:10070000306800F00700B84201D00120E5E7287802
:10071000400705D56068E96820F4E0600843606040
:100720002878000706D56068296920F4605040EAFF
:10073000C100606000F058F86168084AC1F3031115
:10074000515CC8400649086006480068FFF7D8FEBB
:100750000020C2E70020024000100240EC21000807
:1007600018000020100000200F2202600C4A53687D
:1007700003F003034360536803F0F003836053689E
:1007800003F4E063C36052684FF4E06303EAD2020B
:1007900002610448006800F007000860704700002C
:1007A00000100240002002400448054900684968E2
:1007B000044AC1F30221515CC84070471800002070
:1007C00000100240FC2100080448054900684968FF
:1007D000044AC1F3C221515CC84070471800002090
:1007E00000100240FC21000812A185B00FC98DE85D
:1007F0000F0014A0144A006804905168134801F0D7
:100800000C03042B10D0082B0ED1C1F38343C90372
:100810001DF803000AD5516804AAC1F34041515C98
:100820000A4A5043B0FBF1F005B07047084948430D
:10083000FAE7000002030405060708090A0B0C0D7D
:100840000E0F1010010200000010024000127A008A
:1008500000093D002DE9F84F040070D02078C04D0C
:10086000C00749D06868C0F38100012807D06868D4
:10087000C0F38100022809D16868C00306D5286842
:10088000800339D560680028E7D035E06068B0F5AE
:10089000803F0BD010B1B0F5A02F11D0286820F404
:1008A00080302860286820F4802002E0286840F426
:1008B00080302860606890B1FFF702FE06460AE0CB
:1008C000286840F480202860F0E700BFFFF7F8FDBB
:1008D000801B642873D828688003F7D50CE0FFF7E5
:1008E000EFFD064605E000BFFFF7EAFD801B642828
:1008F000F0D828688003F7D420789A4E80074FF00C
:1009000001094FF0000839D5686810F00C0F07D0C6
:100910006868C0F38100022809D16868C00306D462
:100920002868800714D52069012808D110E02069C3
:10093000B0B1C6F80090FFF7C3FD074605E00AE135
:10094000FFF7BEFDC01B0228C4D828688007F7D572
:100950002868616920F0F80040EAC10028600DE0D5
:10096000C6F80080FFF7ACFD074604E0FFF7A8FDDE
:10097000C01B022823D828688007F7D420780007F6
:100980002CD57948A169D9B1C0F80090FFF798FD3E
:10099000074604E0FFF794FDC01B02280FD8686AE1
:1009A0008007F7D571484FF4FA510068B0FBF1F0B9
:1009B000009000BF0098411E0091FAD20EE080E046
:1009C000C0F80080FFF77CFD074604E0FFF778FDE4
:1009D000C01B022875D8686A8007F7D420784007C2
:1009E00060D5E8690027C00008D4E86940F080506D
:1009F000E861E869012700F0805000905C480168D8
:100A0000C90513D40168834641F480710160FFF782
:100A100057FD824606E000BFFFF752FDA0EB0A003B
:100A200064284ED8DBF80000C005F5D5E068012841
:100A30000AD008B1052813D0286A20F001002862E6
:100A4000286A20F0040002E0286A40F001002862D1
:100A5000E06841F2883B98B1FFF732FD82460BE037
:100A6000286A40F004002862EEE700BFFFF728FD87
:100A7000A0EB0A0159455AD8286A8007F6D50CE040
:100A8000FFF71EFD824605E0FFF71AFDA0EB0A0105
:100A900059454CD8286A8007F6D41FB1E86920F080
:100AA0008050E861E06988B36968C1F38101022977
:100AB00044D00228C6F8608004D0FFF701FD044648
:100AC00038E034E0FFF7FCFC074604E0FFF7F8FCF1
:100AD000C01B02282BD828688001F7D4206AB0F503
:100AE000803F05D16868A16820F400300843686041
:100AF000D4E908010843696821F474110843686067
:100B0000C6F86090FFF7DCFC044606E025E000BF75
:100B1000FFF7D6FC001B022809D828688001F7D50A
:100B20001BE000BFFFF7CCFC001B022802D903200A
:100B3000BDE8F88F28688001F4D40EE00128F7D0D2
:100B40006868226A00F48031914204D1616A00F43D
:100B50007010884201D00120EAE70020E8E7000099
:100B6000001002400000424280044242180000206F
:100B7000007000407047704710B5040003D094F82F
:100B80003D0010B107E0012010BD002084F83C00BA
:100B9000204600F00CF8022084F83D00211D20685A
:100BA00000F066FC012084F83D00002010BD704775
:100BB0000168CA6842F00102CA600068816801F0F9
:100BC0000701062903D0016841F0010101600020FE
:100BD0007047704770B50446006801694FF0000522
:100BE000C943890715D4C168C943890711D4E91ECF
:100BF000016101202077206880698007204602D0AB
:100C0000FFF7E7FF04E000F098F8204600F096F8C0
:100C1000257720680169C943490717D4C168C943CA
:100C2000490713D46FF00401016102202077206886
:100C3000806910F4407F204602D0FFF7CAFF04E02D
:100C400000F07BF8204600F079F8257720680169EC
:100C5000C943090716D4C168C943090712D46FF004
:100C600008010161042020772068C06980072046C0
:100C700002D0FFF7AEFF04E000F05FF8204600F07E
:100C80005DF8257720680169C943C90617D4C16892
:100C9000C943C90613D46FF0100101610820207701
:100CA0002068C06910F4407F204602D0FFF791FF12
:100CB00004E000F042F8204600F040F82577206874
:100CC0000169C943C90708D1C168C943C90704D12B
:100CD000891E0161204600F05DF820680169C94362
:100CE000090609D4C168C943090605D46FF080011B
:100CF00001612046FFF73EFF20680169C9434906AC
:100D000009D4C168C943490605D46FF040010161A7
:100D1000204600F049F820680169C94389060BD4D0
:100D2000C168C943890607D46FF0200101612046DC
:100D3000BDE87040FFF71FBF70BD704770470000EF
:100D400010B504460068002200F0C8FB104B41F2C9
:100D5000111120688A10984209D1036A0B4206D10A
:100D6000036A134203D1436C23F4004343642068B5
:100D7000036A0B4206D1016A114203D1016821F0D6
:100D800001010160012084F83D00002010BD000039
:100D9000002C014000680349884201D1FFF796BB4F
:100DA00070470000000800407047704710F8391F76
:100DB000407808437047000070B502680446106828
:100DC000D168536910F00F0F50D003F0010501F402
:100DD000907635435DD0C20705D0CA0503D5E26BD6
:100DE00042F00102E263420705D5DA0703D0E26B65
:100DF00042F00202E263820705D5DA0703D0E26B14
:100E000042F00402E263020705D5DA0703D0E26B81
:100E100042F00802E263E26B002A33D0800604D578
:100E2000880602D5204600F07CFB20684069E16B13
:100E3000C0F38010090700D428B3204600F063FBFC
:100E40002068416949061AD5416921F04001416194
:100E5000606BA0B11B494163606BFFF7E9F90028A3
:100E600010D0606B416BBDE870400847830610D519
:100E70008B060ED52046BDE8704000F052BB2046E0
:100E8000FFF793FF70BD2046FFF78FFF0020E06360
:100E900070BD030606D50B0604D52046BDE870409C
:100EA00000F0E6BB4006F3D54806F1D5D1682046F0
:100EB00021F04001D160202184F8391000F0D4F8ED
:100EC00070BD0000F714000870B5040004D094F859
:100ED0003900002510B106E0012070BD84F83850BB
:100EE000204600F023F8242084F839002068C168E7
:100EF00021F40051C160204600F05EFB20680169CA
:100F000021F4904101612068416921F02A01416189
:100F10002068C16841F40051C160E563202084F875
:100F2000390084F83A00002070BD000030B585B06B
:100F300000240094019402940394006818498842A4
:100F40002BD11848C16941F40031C161C16901F474
:100F500000310491816941F0040181618069124D81
:100F600000F004000490042000900220019003206F
:100F7000039069462846FFF7A7F90820CDE9000449
:100F8000694628460294FFF79FF900220521262092
:100F9000FFF722FB2620FFF711FB05B030BD000054
:100FA00000440040001002400008014070472DE955
:100FB000F843044690F839001F4616460D4620288F
:100FC00050D1A5B19EB194F8380001284AD0012033
:100FD00084F838004FF00008C4F83C80212084F8E1
:100FE0003900FFF76DFAA6848146E68426E00120E9
:100FF000BDE8F883E08C401EE084A0684B46B0F565
:10100000805F4FF000024FF080012046009703D030
:1010100000F05FFBE8B90DE000F05BFBC8B9288881
:101020002168C0F308004860206908B16D1C05E024
:10103000AD1C03E0216815F8010B4860E08C002826
:10104000D8D14B46002240212046009700F041FBBA
:1010500008B10320CCE7202084F8390084F83880D8
:101060000020C5E70220C3E77047FEE710B58AB04D
:1010700014220B496846FFF7A1F80021684600F0EA
:10108000E9FB084C064914222060143105A8FFF73B
:1010900095F8002105A800F0DDFB60600AB010BDE6
:1010A000C4210008000000202DE9F04385B0002095
:1010B00000900190029003903148816941F0100145
:1010C0008161816901F010010491816941F0200181
:1010D0008161816901F020010491816941F004017D
:1010E0008161816901F004010491816941F0080185
:1010F00081618069234E00F008004FF40054049091
:10110000002221463046FFF7D6F9DFF87C804FF405
:101110001E47012239464046FFF7CDF9DFF86C90B3
:10112000012240214846FFF7C6F90125CDE90045D7
:1011300002240294694630460394FFF7C5F84FF441
:101140001F400090CDE90154694640460394FFF7E3
:10115000BBF8C0200090CDE901546946484603948D
:10116000FFF7B2F8012239464046FFF7A4F9012201
:1011700040214846FFF79FF905B0BDE8F083000025
:10118000001002400010014000080140000C014026
:101190000C4810B50A4901604FF4E131416000216B
:1011A00081600C22C160C0E904128161C161FFF756
:1011B0008BFE002803D0BDE81040FFF737B810BD04
:1011C00000440040C0000020FEE700002DE9F04789
:1011D0004FF40071404C4D008E00CF00DFF8FC90C2
:1011E0004FF40048072874D2DFE800F073041E248F
:1011F0002F3F540001222046FFF75DF900222946C7
:101200002046FFF758F9002231462046FFF753F9F0
:10121000002239462046FFF74EF90022414620467B
:10122000FFF749F900224EE000222046FFF743F97C
:101230000122E4E700222046FFF73DF9002229467B
:101240002046FFF738F90122DEE700222046FFF7AB
:1012500032F9002229462046FFF72DF900223146B7
:101260002046FFF728F90122D3E700222046FFF7A6
:1012700022F9002229462046FFF71DF900223146B7
:101280002046FFF718F9002239462046FFF713F9E8
:101290000122C3E700222046FFF70DF9002229466C
:1012A0002046FFF708F9002231462046FFF703F9F0
:1012B000002239462046FFF7FEF80022414620462C
:1012C000FFF7F9F801224846BDE8F0474021FFF753
:1012D000F2B800228FE7000000080140000C014036
:1012E00002464FF480710148FFF7E5B8000801405D
:1012F0007047012000F0A2FAFBE70000DFF85480FD
:101300004FF400574FF4C8664FF47A793946404697
:10131000FFF7CAF8641CE4B2062C00D9002420466A
:10132000FFF754FF642000F047FA00250120FFF783
:10133000D7FF062000F040FA0020FFF7D1FF06207B
:1013400000F03AFA6D1CADB2B542EFD3484600F05A
:1013500075FADBE70010014010B5502080F31188CA
:10136000BFF34F8FBFF36F8F00F066FE18B10449D3
:101370004FF080500860002080F3118810BD0000FD
:1013800004ED00E030B58FB028216846FEF72FFF4E
:1013900014210AA8FEF72BFF01210804CDE9001053
:1013A0000024029402250491CDE907504FF4E01087
:1013B00009906846FFF74EFA0F20CDE90A0568024A
:1013C000CDE90C4002210AA80E94FFF737F90FB0BF
:1013D00030BD00000D48016841F001010160416825
:1013E0000B4A1140416001680A4A114001600168DE
:1013F00021F480210160416821F4FE0141604FF435
:101400001F0181600449C00308607047001002405A
:101410000000FFF8FFFFF6FE08ED00E010B50E48F3
:10142000FFF7D8FB0D480188491C89B20180B1F54E
:10143000C86F0FD30A4A01211170002101800648AC
:10144000FFF77EFC642000F0B7F9BDE810400020F3
:10145000FFF7BCBE10BD0000800000200800002087
:101460000A0000200148FFF7B5BB00000001002082
:10147000F0B50268164B174C174D4FF08047984255
:1014800005D0B84203D0A04201D0A84203D122F037
:1014900070064A683243984205D0B84203D0A04251
:1014A00001D0A84203D122F44074CA6822434C6997
:1014B00022F08002224302608A68C2620A68826265
:1014C000984201D10969016301214161F0BD000029
:1014D000002C0140000400400008004010B501F05D
:1014E0001F030121046A99408C430462016A9A40F7
:1014F0001143016210BD10B5406A0021C185C1844D
:10150000FFF753FC10BD0168CA6822F49072CA60EC
:1015100001684A6922F001024A61202180F83A10EC
:10152000704710B590F83A10222901D0022010BD62
:101530008168B1F5805F11D00169002901681FD071
:10154000496801F07F03816A4A1C82620B70C18D79
:10155000491E0904090CC18518D02BE00269816A73
:10156000002A0268526805D0D2B20A80816A491CFA
:101570008162ECE7C2F308020A80816A891CF7E7FE
:101580004A68816A4B1C83620A70E0E70168CA6896
:1015900022F02002CA600168CA6822F48072CA6020
:1015A00001684A6922F001024A61202180F83A105C
:1015B000FFF7FCFC002010BD2DE9F0410446006857
:1015C0000169E26821F44051114301612169A06879
:1015D0000843616908432168CA6841F20C639A4371
:1015E0000243CA6020684169A26921F44071114335
:1015F00041611E49206864253226884202D1FFF7E6
:10160000E3F801E0FFF7D0F800EBC00101EB0011B7
:1016100060686FF018078000B1FBF0F2B2FBF5F2E2
:10162000B1FBF0F37A4303EB8202B1FBF0F306EB7C
:101630000212B2FBF5F2B3FBF5F302F0F00202EB9B
:101640000312B1FBF0F3B1FBF0F0B0FBF5F078431F
:1016500003EB800006EB0010B0FBF5F0216800F012
:101660000F0010448860BDE8F081000000380140A0
:1016700090F83910212901D0022070478168B1F516
:10168000805F016A0BD04A1C0262026809785160CF
:10169000C18C491E0904090CC1840ED017E00988C9
:1016A0000268C1F30801516001690029016A02D092
:1016B000491C0162ECE7891CFBE70168CA6822F05B
:1016C0008002CA600068C16841F04001C16000202A
:1016D00070472DE9F041984617460E460446069D90
:1016E0001DE0681C1BD02DB1FEF7EAFEA0EB080040
:1016F000A84214D92068C16821F4D071C160206863
:10170000416921F001014161202084F8390084F809
:101710003A00002084F838000320BDE8F0812068FA
:10172000006836EA000004D00020B842D9D000207A
:10173000F3E70120F9E700000148FFF73DBB000097
:10174000C0000020FEE70000014A024900F023B873
:10175000CD1700087C0000200907090E002804DBD3
:1017600000F1E02080F80014704700F00F0000F155
:10177000E02080F8141D704702E008C8121F08C15D
:10178000002AFAD170477047002001E001C1121F02
:10179000002AFBD170472DE9F04116460F4604465A
:1017A000002503E03946B047641C6D1C20780028F2
:1017B000F8D12846BDE8F0810022002100E0491C54
:1017C0008142FCDB521C472AF7DB704713B54FF60A
:1017D000FF73012269460548FFF7E9FB0348FFF75D
:1017E000E5FA0028FAD000981CBD0000C0000020D7
:1017F000FEF774FEFFF7C6FDFFF756FCFFF7C8FCC7
:10180000FFF734FC02A0FFF79FFF00F01EF8FEE791
:101810000A3D3D3DBAAFCAFD5072696E7466BAAFFB
:10182000CAFDB7A2CBCDCAFDBEDD3D3D3D0A0000DD
:1018300001460020842900D0C81C704710B500B9AB
:10184000012000F0E9FA002010BD10B500F00AFBFD
:10185000002010BD3EB504460D46B0F90800FFF764
:10186000E7FF02A9CDE90001208A2B4682B2D4E924
:10187000001000F0B5FB012801D000203EBD029809
:101880003EBD00002DE9F041184C0F460546666943
:101890002068001D00F006FA38B9206890F82C1076
:1018A00001208840A1698143A161681C07D137B13B
:1018B0002168BDE8F0410E48091D00F02CBA2068EF
:1018C0003544B5424560216805D2A068BDE8F041C5
:1018D000091D00F008BA6068091D00F004FA206BC9
:1018E000854200D22563BDE8F08100001C00002085
:1018F0001C0200202DE9F041054600F019FA2E4C9B
:101900002069401C206120682C4F10B1E06940B371
:101910002DE025602069012829D1002606EB8600EC
:1019200007EB800000F0D1F9761C072EF6D3234890
:101930008C3000F0CAF92148A03000F0C6F91F48E9
:10194000B43000F0C2F91D48C83000F0BEF91B48A1
:10195000DC3000F0BAF919488C3060601430A060B7
:1019600005E02068E96AC06A884200D82560E06A1C
:10197000401CE062E96A0120A26988401043A0612E
:1019800001EB810007EB8000291D00F0C4F900F095
:10199000EFF9E06900280CD02068E96AC06A884243
:1019A00007D207494FF080500860BFF34F8FBFF355
:1019B0006F8FBDE8F08100001C0000204001002076
:1019C00004ED00E010B50446006B00F0E5F9204698
:1019D000BDE8104000F0E0B910484FF44061420704
:1019E00006D0C01D0D4920F00700411AC1F5406125
:1019F0000B4A00230144C2E900030839103A21F0E0
:101A0000070111604B600B600B1AC0E90013936073
:101A10004FF000405360D06070470000300200205B
:101A200068000020144E154CA6F1C8074FF08058EE
:101A3000DFF84C9012E000BF00F07AF9F068C5685A
:101A4000281D00F02FF92069401E2061E068401E2B
:101A5000E06000F08DF92846FFF7B4FFE068002849
:101A6000EAD138680128F9D9C9F80080BFF34F8F4F
:101A7000BFF36F8FF2E70000080200201C00002077
:101A800004ED00E02DE9F0479A46DDE9098481463E
:101A90006FF00303206B03EB82021044089D20F0DB
:101AA0000706700707D0502080F31188BFF34F8FCF
:101AB000BFF36F8FFEE723180A5C83F834200A5CBB
:101AC00012B1401C1028F6D3002784F84370072D6C
:101AD00000D30625E562C4E91157201D00F000F986
:101AE00004F1180000F0FCF82461C5F107006462FD
:101AF000A061E76484F8507052464946304600F0D1
:101B0000BFF82060B8F1000F01D0C8F80040BDE870
:101B1000F087000030B5114900E011460A688242A2
:101B2000FBD34B685C18844203D14068184448607A
:101B3000084643681C18944209D1084C103C24689C
:101B4000A24209D052681A4442600A6812680260D0
:101B5000814200D0086030BD0460F9E768000020D1
:101B600006484168096829B14168C968C968496877
:101B7000016370474FF0FF31FAE700001C000020BE
:101B800008484068401C4FF0500080F3118804D092
:101B9000BFF34F8FBFF36F8FFEE7BFF34F8FBFF3DE
:101BA0006F8FFEE7700000202DE9F0410546002709
:101BB00000F08CF9314E306808B9FFF70DFFF0687E
:101BC00005424BD1C5B3083568070ED005F00700B4
:101BD000C0F108000544680707D0502080F3118841
:101BE000BFF34F8FBFF36F8FFEE72DB37068854251
:101BF00034D82248103001460C6801E020460C46DB
:101C00006168A94202D221680029F7D131688C426B
:101C100024D007682168016060680837411B1029DB
:101C20000FD96019420708D0502080F31188BFF304
:101C30004F8FBFF36F8FFEE710E041606560FFF7E5
:101C400069FF61687068401A7060B268904200D2A3
:101C5000B060F06801430020C4E9000100F050FAD0
:101C6000780707D0502080F31188BFF34F8FBFF360
:101C70006F8FFEE73846BDE8F08100005800002075
:101C800010B5031F4FF080741C601B1F21F0010171
:101C90001960191F024B0B60143940380A6010BDDF
:101CA000811B0008D0E9013201699A60D0E9012363
:101CB0005A604A68824201D182684A600022026109
:101CC0000868401E08600868704700F108014FF07E
:101CD000FF32C0E90112C16001610021016070475B
:101CE00000210161704730B50B685A1C02D000F129
:101CF000080202E0026904E02246546825689D4219
:101D0000FAD953684B6099608A6051600861016834
:101D1000491C016030BD42684A6093688B609368DB
:101D20005960916008610168491C016070470000BA
:101D3000502080F31188BFF34F8FBFF36F8F0A4994
:101D40004868401C486001280CD10848006810F021
:101D5000FF0F07D0502080F31188BFF34F8FBFF3E0
:101D60006F8FFEE7704700007000002004ED00E078
:101D70000849486828B1401E486001D180F31188A5
:101D80007047502080F31188BFF34F8FBFF36F8FE0
:101D9000FEE700007000002070B5002827D0144D29
:101DA000A0F108046168E868014207D1502080F37F
:101DB0001188BFF34F8FBFF36F8FFEE722683AB1F0
:101DC000502080F31188BFF34F8FBFF36F8FFEE772
:101DD0008143616000F07AF860686968084468606F
:101DE0002046FFF797FEBDE8704000F089B970BD4E
:101DF000580000204FF0E020002101618161054979
:101E00004FF47A720968B1FBF2F1491E4161072172
:101E1000016170471800002010B5020014D00F486F
:101E2000806B38B1502080F31188BFF34F8FBFF320
:101E30006F8FFEE700F04AF800211046FFF722FD01
:101E400000F05EF9002807D105494FF08050086086
:101E5000BFF34F8FBFF36F8F10BD00001C00002039
:101E600004ED00E01CB515480024CDE900402346F0
:101E7000802213A1144800F0B3F8012809D0401CB7
:101E80001AD1502080F31188BFF34F8FBFF36F8FAB
:101E9000FEE7502080F31188BFF34F8FBFF36F8FA1
:101EA00006484FF0FF31343801630121C1614461BC
:101EB000BDE81C4000F040B81CBD000050000020F0
:101EC00049444C4500000000251A00080248816B77
:101ED000491C8163704700001C0000201448816B7E
:101EE00011B1012141627047002141628169B1FA5B
:101EF00081F1C1F11F0101EB81020E4951F822303D
:101F00006BB101EB820101F108034A6852684A6033
:101F10009A4201D152684A60D168016070475020EE
:101F200080F31188BFF34F8FBFF36F8FFEE7000080
:101F30001C000020400100201CB5264908780190B3
:101F4000FF20087008788DF800009DF800009DF8CB
:101F5000002000F0F000904207D0502080F311885C
:101F6000BFF34F8FBFF36F8FFEE79DF800001A4B52
:101F700000F0500018700720986005E09DF80020E0
:101F800052008DF80020401E9DF800201206F5D466
:101F90009860032807D0502080F31188BFF34F8F3B
:101FA000BFF36F8FFEE74FF44070986001980870A0
:101FB0000A48016841F470010160016841F0704114
:101FC0000160FFF717FF00205860FEF7ABF8002014
:101FD0001CBD000000E400E07000002020ED00E0E7
:101FE0002DE9FF5F8346DDE90E87994616468A464E
:101FF0009000FFF7D9FD05001AD05420FFF7D4FD5B
:10200000040012D025630021CDE90241CDE900870B
:102010004B46324651465846FFF734FD2046FFF7FF
:1020200069FC012004B0BDE8F09F2846FFF7B4FE2C
:102030004FF0FF30F6E700002DE9F0412E4C00276D
:10204000A06B40B1206A401C2062606A00B1012789
:102050003846BDE8F0816669761C666113D1606818
:10206000006838B1502080F31188BFF34F8FBFF361
:102070006F8FFEE76068A1686160A060A06A401C85
:10208000A062FFF76DFD206BDFF87080864209D3F8
:102090006068006880B16068C068C568686886422A
:1020A0000DD220632068C06A00EB800158F821003F
:1020B0000128CAD90127C8E74FF0FF30F1E7281DF2
:1020C000FFF7F0FDA86A18B105F11800FFF7EAFD67
:1020D000E86A0121A26981401143A16100EB8001FE
:1020E00008EB8100291DFFF716FEE86A2168C96A1E
:1020F0008842CDD30127CBE71C00002040010020FF
:102100002DE9F0472C4D00242746A86B38B1FFF786
:102110000FFEA86B401EA863A86B40B146E050209C
:1021200080F31188BFF34F8FBFF36F8FFEE72969EC
:10213000224E0120D1B3A6F1B40980463068E8B13F
:10214000F068C46804F11800FFF7ACFD201DFFF72C
:10215000A9FDE06AAA6908FA00F11143A96100EB40
:10216000800109EB8100211DFFF7D5FDE06A296898
:10217000C96A8842E2D3C5F82480DFE70CB1FFF7D3
:10218000EFFC2C6A44B14646FFF756FF00B16E6281
:10219000641EF9D100202862686A38B10849012715
:1021A00038070860BFF34F8FBFF36F8FFFF7E0FD75
:1021B0003846BDE8F08700001C000020F401002034
:1021C00004ED00E010220008F312000800000000F7
:1021D000000000008000000004220008FD1200083A
:1021E000FDFF000000000000800000000000000073
:1021F00000000000010203040607080900000000B7
:10220000010203046D795461736B303200000000E9
:1022100064656661756C745461736B003C220008E0
:10222000000000208000000078170008BC22000891
:1022300080000020B0110000881700080000000096
:10224000000000000000000001000000100000007D
:10225000000000000024F400000000000000000066
:10226000000000000000000000000000000000006E
:10227000000000000000000000000000000000005E
:10228000000000000000000000000000000000004E
:10229000000000000000000000000000000000003E
:1022A000000000000000000000000000000000002E
:0C22B000AAAAAAAA00000000000000007A
:04000005080000ED02
:00000001FF
